{
  "contractName": "Project",
  "abi": [
    {
      "constant": true,
      "inputs": [],
      "name": "name",
      "outputs": [
        {
          "name": "",
          "type": "string"
        }
      ],
      "payable": false,
      "stateMutability": "view",
      "type": "function"
    },
    {
      "constant": false,
      "inputs": [
        {
          "name": "timeMinutes",
          "type": "uint32"
        },
        {
          "name": "comment",
          "type": "string"
        }
      ],
      "name": "setBillableTime",
      "outputs": [],
      "payable": false,
      "stateMutability": "nonpayable",
      "type": "function"
    },
    {
      "constant": false,
      "inputs": [],
      "name": "approve",
      "outputs": [],
      "payable": false,
      "stateMutability": "nonpayable",
      "type": "function"
    },
    {
      "constant": true,
      "inputs": [],
      "name": "clientAddress",
      "outputs": [
        {
          "name": "",
          "type": "address"
        }
      ],
      "payable": false,
      "stateMutability": "view",
      "type": "function"
    },
    {
      "constant": false,
      "inputs": [],
      "name": "withdraw",
      "outputs": [],
      "payable": false,
      "stateMutability": "nonpayable",
      "type": "function"
    },
    {
      "constant": true,
      "inputs": [],
      "name": "getPriceCap",
      "outputs": [
        {
          "name": "",
          "type": "uint256"
        }
      ],
      "payable": false,
      "stateMutability": "view",
      "type": "function"
    },
    {
      "constant": true,
      "inputs": [],
      "name": "availableForWithdraw",
      "outputs": [
        {
          "name": "",
          "type": "uint256"
        }
      ],
      "payable": false,
      "stateMutability": "view",
      "type": "function"
    },
    {
      "constant": true,
      "inputs": [],
      "name": "version",
      "outputs": [
        {
          "name": "",
          "type": "uint16"
        }
      ],
      "payable": false,
      "stateMutability": "view",
      "type": "function"
    },
    {
      "constant": true,
      "inputs": [],
      "name": "hourlyRate",
      "outputs": [
        {
          "name": "",
          "type": "uint256"
        }
      ],
      "payable": false,
      "stateMutability": "view",
      "type": "function"
    },
    {
      "constant": true,
      "inputs": [],
      "name": "minutesReported",
      "outputs": [
        {
          "name": "",
          "type": "uint32"
        }
      ],
      "payable": false,
      "stateMutability": "view",
      "type": "function"
    },
    {
      "constant": true,
      "inputs": [],
      "name": "lastActivityDate",
      "outputs": [
        {
          "name": "",
          "type": "uint256"
        }
      ],
      "payable": false,
      "stateMutability": "view",
      "type": "function"
    },
    {
      "constant": true,
      "inputs": [],
      "name": "executionDate",
      "outputs": [
        {
          "name": "",
          "type": "uint256"
        }
      ],
      "payable": false,
      "stateMutability": "view",
      "type": "function"
    },
    {
      "constant": true,
      "inputs": [],
      "name": "getPrepay",
      "outputs": [
        {
          "name": "",
          "type": "uint256"
        }
      ],
      "payable": false,
      "stateMutability": "view",
      "type": "function"
    },
    {
      "constant": true,
      "inputs": [],
      "name": "prepayFractionThousands",
      "outputs": [
        {
          "name": "",
          "type": "uint32"
        }
      ],
      "payable": false,
      "stateMutability": "view",
      "type": "function"
    },
    {
      "constant": false,
      "inputs": [],
      "name": "start",
      "outputs": [],
      "payable": true,
      "stateMutability": "payable",
      "type": "function"
    },
    {
      "constant": true,
      "inputs": [],
      "name": "state",
      "outputs": [
        {
          "name": "",
          "type": "uint8"
        }
      ],
      "payable": false,
      "stateMutability": "view",
      "type": "function"
    },
    {
      "constant": true,
      "inputs": [],
      "name": "endDate",
      "outputs": [
        {
          "name": "",
          "type": "uint256"
        }
      ],
      "payable": false,
      "stateMutability": "view",
      "type": "function"
    },
    {
      "constant": true,
      "inputs": [],
      "name": "contractorComment",
      "outputs": [
        {
          "name": "",
          "type": "string"
        }
      ],
      "payable": false,
      "stateMutability": "view",
      "type": "function"
    },
    {
      "constant": true,
      "inputs": [],
      "name": "timeCapMinutes",
      "outputs": [
        {
          "name": "",
          "type": "uint32"
        }
      ],
      "payable": false,
      "stateMutability": "view",
      "type": "function"
    },
    {
      "constant": false,
      "inputs": [
        {
          "name": "positive",
          "type": "bool"
        },
        {
          "name": "comment",
          "type": "string"
        }
      ],
      "name": "leaveFeedback",
      "outputs": [],
      "payable": false,
      "stateMutability": "nonpayable",
      "type": "function"
    },
    {
      "constant": false,
      "inputs": [],
      "name": "cancel",
      "outputs": [],
      "payable": false,
      "stateMutability": "nonpayable",
      "type": "function"
    },
    {
      "constant": true,
      "inputs": [],
      "name": "contractorAddress",
      "outputs": [
        {
          "name": "",
          "type": "address"
        }
      ],
      "payable": false,
      "stateMutability": "view",
      "type": "function"
    },
    {
      "constant": true,
      "inputs": [],
      "name": "getRole",
      "outputs": [
        {
          "name": "",
          "type": "uint8"
        }
      ],
      "payable": false,
      "stateMutability": "view",
      "type": "function"
    },
    {
      "inputs": [
        {
          "name": "_name",
          "type": "string"
        },
        {
          "name": "_clientAddress",
          "type": "address"
        },
        {
          "name": "_hourlyRate",
          "type": "uint256"
        },
        {
          "name": "_timeCapMinutes",
          "type": "uint32"
        },
        {
          "name": "_prepayFractionThousands",
          "type": "uint32"
        }
      ],
      "payable": false,
      "stateMutability": "nonpayable",
      "type": "constructor"
    }
  ],
  "bytecode": "0x60606040524260065560006009556000600a55341561001d57600080fd5b604051611124380380611124833981016040528080518201919060200180519060200190919080519060200190919080519060200190919080519060200190919050506103e88163ffffffff161115151561007757600080fd5b846001908051906020019061008d929190610163565b5083600260006101000a81548173ffffffffffffffffffffffffffffffffffffffff021916908373ffffffffffffffffffffffffffffffffffffffff1602179055508260058190555081600360186101000a81548163ffffffff021916908363ffffffff16021790555080600360146101000a81548163ffffffff021916908363ffffffff16021790555033600360006101000a81548173ffffffffffffffffffffffffffffffffffffffff021916908373ffffffffffffffffffffffffffffffffffffffff1602179055505050505050610208565b828054600181600116156101000203166002900490600052602060002090601f016020900481019282601f106101a457805160ff19168380011785556101d2565b828001600101855582156101d2579182015b828111156101d15782518255916020019190600101906101b6565b5b5090506101df91906101e3565b5090565b61020591905b808211156102015760008160009055506001016101e9565b5090565b90565b610f0d806102176000396000f300606060405260043610610133576000357c0100000000000000000000000000000000000000000000000000000000900463ffffffff16806306fdde03146101385780630e40de31146101c657806312424e3f146102035780632c2ab5ea146102185780633ccfd60b1461026d5780634c7afe60146102825780634d947d59146102ab57806354fd4d50146102d457806359a7b3fe14610305578063844b33201461032e57806391294e5414610363578063a761d1b61461038c578063adb41fec146103b5578063bb168ab6146103de578063be9a655514610413578063c19d93fb1461041d578063c24a0f8b14610454578063c8802e151461047d578063cae3e7021461050b578063d900f2d614610540578063ea8a1af014610579578063f21376af1461058e578063fde08174146105e3575b600080fd5b341561014357600080fd5b61014b61061a565b6040518080602001828103825283818151815260200191508051906020019080838360005b8381101561018b578082015181840152602081019050610170565b50505050905090810190601f1680156101b85780820380516001836020036101000a031916815260200191505b509250505060405180910390f35b34156101d157600080fd5b610201600480803563ffffffff1690602001909190803590602001908201803590602001919091929050506106b8565b005b341561020e57600080fd5b610216610788565b005b341561022357600080fd5b61022b6107fb565b604051808273ffffffffffffffffffffffffffffffffffffffff1673ffffffffffffffffffffffffffffffffffffffff16815260200191505060405180910390f35b341561027857600080fd5b610280610821565b005b341561028d57600080fd5b6102956108b3565b6040518082815260200191505060405180910390f35b34156102b657600080fd5b6102be6108e3565b6040518082815260200191505060405180910390f35b34156102df57600080fd5b6102e7610a01565b604051808261ffff1661ffff16815260200191505060405180910390f35b341561031057600080fd5b610318610a06565b6040518082815260200191505060405180910390f35b341561033957600080fd5b610341610a0c565b604051808263ffffffff1663ffffffff16815260200191505060405180910390f35b341561036e57600080fd5b610376610a22565b6040518082815260200191505060405180910390f35b341561039757600080fd5b61039f610a28565b6040518082815260200191505060405180910390f35b34156103c057600080fd5b6103c8610a2e565b6040518082815260200191505060405180910390f35b34156103e957600080fd5b6103f1610a69565b604051808263ffffffff1663ffffffff16815260200191505060405180910390f35b61041b610a7f565b005b341561042857600080fd5b610430610b51565b6040518082600381111561044057fe5b60ff16815260200191505060405180910390f35b341561045f57600080fd5b610467610b63565b6040518082815260200191505060405180910390f35b341561048857600080fd5b610490610b69565b6040518080602001828103825283818151815260200191508051906020019080838360005b838110156104d05780820151818401526020810190506104b5565b50505050905090810190601f1680156104fd5780820380516001836020036101000a031916815260200191505b509250505060405180910390f35b341561051657600080fd5b61051e610c07565b604051808263ffffffff1663ffffffff16815260200191505060405180910390f35b341561054b57600080fd5b610577600480803515159060200190919080359060200190820180359060200191909192905050610c1d565b005b341561058457600080fd5b61058c610c8a565b005b341561059957600080fd5b6105a1610d4e565b604051808273ffffffffffffffffffffffffffffffffffffffff1673ffffffffffffffffffffffffffffffffffffffff16815260200191505060405180910390f35b34156105ee57600080fd5b6105f6610d74565b6040518082600281111561060657fe5b60ff16815260200191505060405180910390f35b60018054600181600116156101000203166002900480601f0160208091040260200160405190810160405280929190818152602001828054600181600116156101000203166002900480156106b05780601f10610685576101008083540402835291602001916106b0565b820191906000526020600020905b81548152906001019060200180831161069357829003601f168201915b505050505081565b600360009054906101000a900473ffffffffffffffffffffffffffffffffffffffff1673ffffffffffffffffffffffffffffffffffffffff163373ffffffffffffffffffffffffffffffffffffffff1614151561071457600080fd5b600180600381111561072257fe5b6000809054906101000a900460ff16600381111561073c57fe5b14151561074857600080fd5b836003601c6101000a81548163ffffffff021916908363ffffffff16021790555082826004919061077a929190610e3c565b504260068190555050505050565b600060026000806101000a81548160ff021916908360038111156107a857fe5b02179055504260088190555042600681905550603c6003601c9054906101000a900463ffffffff1663ffffffff16600554028115156107e357fe5b0490506009548111156107f857806009819055505b50565b600260009054906101000a900473ffffffffffffffffffffffffffffffffffffffff1681565b6000426006819055506108326108e3565b905060008111156108b0576001600281111561084a57fe5b610852610d74565b600281111561085d57fe5b141561086f5780600a5401600a819055505b3373ffffffffffffffffffffffffffffffffffffffff166108fc829081150290604051600060405180830381858888f1935050505015156108af57600080fd5b5b50565b6000603c600360189054906101000a900463ffffffff1663ffffffff16600554028115156108dd57fe5b04905090565b60008060008060038111156108f457fe5b6000809054906101000a900460ff16600381111561090e57fe5b141561091d57600092506109fc565b610925610d74565b91506000600281111561093457fe5b82600281111561094057fe5b141561094f57600092506109fc565b600a546009541015151561095f57fe5b600a546009540390506001600281111561097557fe5b82600281111561098157fe5b141561098f578092506109fc565b60028081111561099b57fe5b8260028111156109a757fe5b14156109f157803073ffffffffffffffffffffffffffffffffffffffff1631101515156109d057fe5b803073ffffffffffffffffffffffffffffffffffffffff16310392506109fc565b600015156109fb57fe5b5b505090565b600181565b60055481565b6003601c9054906101000a900463ffffffff1681565b60065481565b60075481565b600080610a396108b3565b90506103e8600360149054906101000a900463ffffffff1663ffffffff168202811515610a6257fe5b0491505090565b600360149054906101000a900463ffffffff1681565b600260009054906101000a900473ffffffffffffffffffffffffffffffffffffffff1673ffffffffffffffffffffffffffffffffffffffff163373ffffffffffffffffffffffffffffffffffffffff16141515610adb57600080fd5b6000806003811115610ae957fe5b6000809054906101000a900460ff166003811115610b0357fe5b141515610b0f57600080fd5b60016000806101000a81548160ff02191690836003811115610b2d57fe5b0217905550610b3a610a2e565b600981905550426007819055504260068190555050565b6000809054906101000a900460ff1681565b60085481565b60048054600181600116156101000203166002900480601f016020809104026020016040519081016040528092919081815260200182805460018160011615610100020316600290048015610bff5780601f10610bd457610100808354040283529160200191610bff565b820191906000526020600020905b815481529060010190602001808311610be257829003601f168201915b505050505081565b600360189054906101000a900463ffffffff1681565b60026003811115610c2a57fe5b6000809054906101000a900460ff166003811115610c4457fe5b1480610c735750600380811115610c5757fe5b6000809054906101000a900460ff166003811115610c7157fe5b145b1515610c7e57600080fd5b42600681905550505050565b600260009054906101000a900473ffffffffffffffffffffffffffffffffffffffff1673ffffffffffffffffffffffffffffffffffffffff163373ffffffffffffffffffffffffffffffffffffffff16141515610ce657600080fd5b6001806003811115610cf457fe5b6000809054906101000a900460ff166003811115610d0e57fe5b141515610d1a57600080fd5b60036000806101000a81548160ff02191690836003811115610d3857fe5b0217905550426008819055504260068190555050565b600360009054906101000a900473ffffffffffffffffffffffffffffffffffffffff1681565b6000600260009054906101000a900473ffffffffffffffffffffffffffffffffffffffff1673ffffffffffffffffffffffffffffffffffffffff163373ffffffffffffffffffffffffffffffffffffffff161415610dd55760029050610e39565b600360009054906101000a900473ffffffffffffffffffffffffffffffffffffffff1673ffffffffffffffffffffffffffffffffffffffff163373ffffffffffffffffffffffffffffffffffffffff161415610e345760019050610e39565b600090505b90565b828054600181600116156101000203166002900490600052602060002090601f016020900481019282601f10610e7d57803560ff1916838001178555610eab565b82800160010185558215610eab579182015b82811115610eaa578235825591602001919060010190610e8f565b5b509050610eb89190610ebc565b5090565b610ede91905b80821115610eda576000816000905550600101610ec2565b5090565b905600a165627a7a72305820f80ddcdc187b839b249a085276ee8103b737ae681b54edf804a2f53e63e5de010029",
  "source": "pragma solidity ^0.4.18;\n\ncontract Project {\n\n  enum State {\n    Created,\n    Active,\n    Approved,\n    Cancelled\n  }\n\n  enum Role {\n    Stranger,\n    Contractor,\n    Client\n  }\n\n  uint16 public constant version = 1;\n\n  State public state;\n  string public name;\n\n  address public clientAddress;\n  address public contractorAddress;\n\n  uint32 public prepayFractionThousands;\n  uint32 public timeCapMinutes;\n\n  uint32 public minutesReported;\n\n  // making this public breaks Solidity compiler so it starts to output invalid ABI\n  string public contractorComment;\n\n  uint256 public hourlyRate;\n\n  uint256 public lastActivityDate = now;\n  uint256 public executionDate;\n  uint256 public endDate;\n\n  uint256 private contractorCredit = 0;\n  uint256 private contractorDebit = 0;\n\n  function Project(\n    string _name,\n    address _clientAddress,\n    uint256 _hourlyRate,\n    uint32 _timeCapMinutes,\n    uint32 _prepayFractionThousands)\n  public {\n    require(_prepayFractionThousands <= 1000);\n    name = _name;\n    clientAddress = _clientAddress;\n    hourlyRate = _hourlyRate;\n    timeCapMinutes = _timeCapMinutes;\n    prepayFractionThousands = _prepayFractionThousands;\n    contractorAddress = msg.sender;\n  }\n\n  modifier onlyContractor() {\n    require(msg.sender == contractorAddress);\n    _;\n  }\n\n  modifier onlyClient() {\n    require(msg.sender == clientAddress);\n    _;\n  }\n\n  modifier onlyAtState(State _state) {\n    require(state == _state);\n    _;\n  }\n\n  function start() external payable onlyClient onlyAtState(State.Created) {\n    // require(this.balance >= (hourlyRate * timeCapMinutes) / 60);\n    state = State.Active;\n    contractorCredit = getPrepay();\n    executionDate = now;\n    lastActivityDate = now;\n  }\n\n  function getRole() public view returns (Role) {\n    if (msg.sender == clientAddress) {\n      return Role.Client;\n    }\n    if (msg.sender == contractorAddress) {\n      return Role.Contractor;\n    }\n    return Role.Stranger;\n  }\n\n  function getPrepay() public view returns (uint256) {\n    uint256 priceCap = getPriceCap();\n    return (priceCap * prepayFractionThousands) / 1000;\n  }\n\n  function getPriceCap() public view returns (uint256) {\n    return (hourlyRate * timeCapMinutes) / 60;\n  }\n\n  function availableForWithdraw() public view returns (uint) {\n    if (state == State.Created) {\n      return 0;\n    }\n\n    Role role = getRole();\n\n    if (role == Role.Stranger) {\n      return 0;\n    }\n\n    assert(contractorCredit >= contractorDebit);\n    uint256 availableToContractor = contractorCredit - contractorDebit;\n\n    if (role == Role.Contractor) {\n      return availableToContractor;\n    }\n\n    if (role == Role.Client) {\n      assert(this.balance >= availableToContractor);\n      return this.balance - availableToContractor;\n    }\n\n    assert(false);\n  }\n\n  function setBillableTime(uint32 timeMinutes, string comment)\n    onlyContractor onlyAtState(State.Active)\n  external {\n    minutesReported = timeMinutes;\n    contractorComment = comment;\n    lastActivityDate = now;\n  }\n\n  function approve() external {\n    state = State.Approved;\n    endDate = now;\n    lastActivityDate = now;\n\n    uint256 approvedPrice = (hourlyRate * minutesReported) / 60;\n    if (approvedPrice > contractorCredit) {\n      contractorCredit = approvedPrice;\n    }\n  }\n\n  function cancel() onlyClient onlyAtState(State.Active) external {\n    state = State.Cancelled;\n    endDate = now;\n    lastActivityDate = now;\n  }\n\n  function withdraw() public {\n    lastActivityDate = now;\n    uint256 toBeSent = availableForWithdraw();\n    if (toBeSent > 0) {\n      if (getRole() == Role.Contractor) {\n        contractorDebit = contractorDebit + toBeSent;\n      }\n      msg.sender.transfer(toBeSent);\n    }\n  }\n\n  function leaveFeedback(bool positive, string comment) external {\n    require(state == State.Approved || state == State.Cancelled);\n    // TODO\n    lastActivityDate = now;\n  }\n\n}\n",
  "sourcePath": "/Users/sam/dev/projects/append-only-log/hackathon/contracts/Project.sol",
  "compiler": {
    "name": "solc",
    "version": "0.4.18+commit.9cf6e910.Emscripten.clang"
  },
  "schemaVersion": "1.0.1",
  "updatedAt": "2017-11-22T17:16:55.393Z"
}