{
  "contractName": "Project",
  "abi": [
    {
      "constant": true,
      "inputs": [],
      "name": "name",
      "outputs": [
        {
          "name": "",
          "type": "string"
        }
      ],
      "payable": false,
      "stateMutability": "view",
      "type": "function"
    },
    {
      "constant": false,
      "inputs": [
        {
          "name": "timeMinutes",
          "type": "uint32"
        },
        {
          "name": "comment",
          "type": "string"
        }
      ],
      "name": "setBillableTime",
      "outputs": [],
      "payable": false,
      "stateMutability": "nonpayable",
      "type": "function"
    },
    {
      "constant": false,
      "inputs": [],
      "name": "approve",
      "outputs": [],
      "payable": false,
      "stateMutability": "nonpayable",
      "type": "function"
    },
    {
      "constant": true,
      "inputs": [],
      "name": "clientAddress",
      "outputs": [
        {
          "name": "",
          "type": "address"
        }
      ],
      "payable": false,
      "stateMutability": "view",
      "type": "function"
    },
    {
      "constant": false,
      "inputs": [],
      "name": "withdraw",
      "outputs": [],
      "payable": false,
      "stateMutability": "nonpayable",
      "type": "function"
    },
    {
      "constant": true,
      "inputs": [],
      "name": "getPriceCap",
      "outputs": [
        {
          "name": "",
          "type": "uint256"
        }
      ],
      "payable": false,
      "stateMutability": "view",
      "type": "function"
    },
    {
      "constant": true,
      "inputs": [],
      "name": "availableForWithdraw",
      "outputs": [
        {
          "name": "",
          "type": "uint256"
        }
      ],
      "payable": false,
      "stateMutability": "view",
      "type": "function"
    },
    {
      "constant": true,
      "inputs": [],
      "name": "version",
      "outputs": [
        {
          "name": "",
          "type": "uint16"
        }
      ],
      "payable": false,
      "stateMutability": "view",
      "type": "function"
    },
    {
      "constant": true,
      "inputs": [],
      "name": "hourlyRate",
      "outputs": [
        {
          "name": "",
          "type": "uint256"
        }
      ],
      "payable": false,
      "stateMutability": "view",
      "type": "function"
    },
    {
      "constant": true,
      "inputs": [],
      "name": "minutesReported",
      "outputs": [
        {
          "name": "",
          "type": "uint32"
        }
      ],
      "payable": false,
      "stateMutability": "view",
      "type": "function"
    },
    {
      "constant": true,
      "inputs": [],
      "name": "lastActivityDate",
      "outputs": [
        {
          "name": "",
          "type": "uint256"
        }
      ],
      "payable": false,
      "stateMutability": "view",
      "type": "function"
    },
    {
      "constant": true,
      "inputs": [],
      "name": "executionDate",
      "outputs": [
        {
          "name": "",
          "type": "uint256"
        }
      ],
      "payable": false,
      "stateMutability": "view",
      "type": "function"
    },
    {
      "constant": true,
      "inputs": [],
      "name": "getPrepay",
      "outputs": [
        {
          "name": "",
          "type": "uint256"
        }
      ],
      "payable": false,
      "stateMutability": "view",
      "type": "function"
    },
    {
      "constant": true,
      "inputs": [],
      "name": "prepayFractionThousands",
      "outputs": [
        {
          "name": "",
          "type": "uint32"
        }
      ],
      "payable": false,
      "stateMutability": "view",
      "type": "function"
    },
    {
      "constant": false,
      "inputs": [],
      "name": "start",
      "outputs": [],
      "payable": true,
      "stateMutability": "payable",
      "type": "function"
    },
    {
      "constant": true,
      "inputs": [],
      "name": "state",
      "outputs": [
        {
          "name": "",
          "type": "uint8"
        }
      ],
      "payable": false,
      "stateMutability": "view",
      "type": "function"
    },
    {
      "constant": true,
      "inputs": [],
      "name": "endDate",
      "outputs": [
        {
          "name": "",
          "type": "uint256"
        }
      ],
      "payable": false,
      "stateMutability": "view",
      "type": "function"
    },
    {
      "constant": true,
      "inputs": [],
      "name": "contractorComment",
      "outputs": [
        {
          "name": "",
          "type": "string"
        }
      ],
      "payable": false,
      "stateMutability": "view",
      "type": "function"
    },
    {
      "constant": true,
      "inputs": [],
      "name": "timeCapMinutes",
      "outputs": [
        {
          "name": "",
          "type": "uint32"
        }
      ],
      "payable": false,
      "stateMutability": "view",
      "type": "function"
    },
    {
      "constant": false,
      "inputs": [
        {
          "name": "positive",
          "type": "bool"
        },
        {
          "name": "comment",
          "type": "string"
        }
      ],
      "name": "leaveFeedback",
      "outputs": [],
      "payable": false,
      "stateMutability": "nonpayable",
      "type": "function"
    },
    {
      "constant": false,
      "inputs": [],
      "name": "cancel",
      "outputs": [],
      "payable": false,
      "stateMutability": "nonpayable",
      "type": "function"
    },
    {
      "constant": true,
      "inputs": [],
      "name": "contractorAddress",
      "outputs": [
        {
          "name": "",
          "type": "address"
        }
      ],
      "payable": false,
      "stateMutability": "view",
      "type": "function"
    },
    {
      "constant": true,
      "inputs": [],
      "name": "getRole",
      "outputs": [
        {
          "name": "",
          "type": "uint8"
        }
      ],
      "payable": false,
      "stateMutability": "view",
      "type": "function"
    },
    {
      "inputs": [
        {
          "name": "_name",
          "type": "string"
        },
        {
          "name": "_clientAddress",
          "type": "address"
        },
        {
          "name": "_hourlyRate",
          "type": "uint256"
        },
        {
          "name": "_timeCapMinutes",
          "type": "uint32"
        },
        {
          "name": "_prepayFractionThousands",
          "type": "uint32"
        }
      ],
      "payable": false,
      "stateMutability": "nonpayable",
      "type": "constructor"
    }
  ],
  "bytecode": "0x606060405260008060006101000a81548160ff021916908360038111156200002357fe5b02179055504260065560006009556000600a5534156200004257600080fd5b6040516200148d3803806200148d833981016040528080518201919060200180519060200190919080519060200190919080519060200190919080519060200190919050506103e88163ffffffff16111515156200009f57600080fd5b3373ffffffffffffffffffffffffffffffffffffffff168473ffffffffffffffffffffffffffffffffffffffff1614151515620000db57600080fd5b8460019080519060200190620000f3929190620001ca565b5083600260006101000a81548173ffffffffffffffffffffffffffffffffffffffff021916908373ffffffffffffffffffffffffffffffffffffffff16021790555033600360006101000a81548173ffffffffffffffffffffffffffffffffffffffff021916908373ffffffffffffffffffffffffffffffffffffffff1602179055508260058190555081600360186101000a81548163ffffffff021916908363ffffffff16021790555080600360146101000a81548163ffffffff021916908363ffffffff160217905550505050505062000279565b828054600181600116156101000203166002900490600052602060002090601f016020900481019282601f106200020d57805160ff19168380011785556200023e565b828001600101855582156200023e579182015b828111156200023d57825182559160200191906001019062000220565b5b5090506200024d919062000251565b5090565b6200027691905b808211156200027257600081600090555060010162000258565b5090565b90565b61120480620002896000396000f300606060405260043610610133576000357c0100000000000000000000000000000000000000000000000000000000900463ffffffff16806306fdde03146101385780630e40de31146101c657806312424e3f146102035780632c2ab5ea146102185780633ccfd60b1461026d5780634c7afe60146102825780634d947d59146102ab57806354fd4d50146102d457806359a7b3fe14610305578063844b33201461032e57806391294e5414610363578063a761d1b61461038c578063adb41fec146103b5578063bb168ab6146103de578063be9a655514610413578063c19d93fb1461041d578063c24a0f8b14610454578063c8802e151461047d578063cae3e7021461050b578063d900f2d614610540578063ea8a1af014610579578063f21376af1461058e578063fde08174146105e3575b600080fd5b341561014357600080fd5b61014b61061a565b6040518080602001828103825283818151815260200191508051906020019080838360005b8381101561018b578082015181840152602081019050610170565b50505050905090810190601f1680156101b85780820380516001836020036101000a031916815260200191505b509250505060405180910390f35b34156101d157600080fd5b610201600480803563ffffffff1690602001909190803590602001908201803590602001919091929050506106b8565b005b341561020e57600080fd5b6102166107d1565b005b341561022357600080fd5b61022b6108d5565b604051808273ffffffffffffffffffffffffffffffffffffffff1673ffffffffffffffffffffffffffffffffffffffff16815260200191505060405180910390f35b341561027857600080fd5b6102806108fb565b005b341561028d57600080fd5b610295610a41565b6040518082815260200191505060405180910390f35b34156102b657600080fd5b6102be610a71565b6040518082815260200191505060405180910390f35b34156102df57600080fd5b6102e7610bf6565b604051808261ffff1661ffff16815260200191505060405180910390f35b341561031057600080fd5b610318610bfb565b6040518082815260200191505060405180910390f35b341561033957600080fd5b610341610c01565b604051808263ffffffff1663ffffffff16815260200191505060405180910390f35b341561036e57600080fd5b610376610c17565b6040518082815260200191505060405180910390f35b341561039757600080fd5b61039f610c1d565b6040518082815260200191505060405180910390f35b34156103c057600080fd5b6103c8610c23565b6040518082815260200191505060405180910390f35b34156103e957600080fd5b6103f1610c5e565b604051808263ffffffff1663ffffffff16815260200191505060405180910390f35b61041b610c74565b005b341561042857600080fd5b610430610d94565b6040518082600381111561044057fe5b60ff16815260200191505060405180910390f35b341561045f57600080fd5b610467610da6565b6040518082815260200191505060405180910390f35b341561048857600080fd5b610490610dac565b6040518080602001828103825283818151815260200191508051906020019080838360005b838110156104d05780820151818401526020810190506104b5565b50505050905090810190601f1680156104fd5780820380516001836020036101000a031916815260200191505b509250505060405180910390f35b341561051657600080fd5b61051e610e4a565b604051808263ffffffff1663ffffffff16815260200191505060405180910390f35b341561054b57600080fd5b610577600480803515159060200190919080359060200190820180359060200191909192905050610e60565b005b341561058457600080fd5b61058c610f81565b005b341561059957600080fd5b6105a1611045565b604051808273ffffffffffffffffffffffffffffffffffffffff1673ffffffffffffffffffffffffffffffffffffffff16815260200191505060405180910390f35b34156105ee57600080fd5b6105f661106b565b6040518082600281111561060657fe5b60ff16815260200191505060405180910390f35b60018054600181600116156101000203166002900480601f0160208091040260200160405190810160405280929190818152602001828054600181600116156101000203166002900480156106b05780601f10610685576101008083540402835291602001916106b0565b820191906000526020600020905b81548152906001019060200180831161069357829003601f168201915b505050505081565b600360009054906101000a900473ffffffffffffffffffffffffffffffffffffffff1673ffffffffffffffffffffffffffffffffffffffff163373ffffffffffffffffffffffffffffffffffffffff1614151561071457600080fd5b600180600381111561072257fe5b6000809054906101000a900460ff16600381111561073c57fe5b14151561074857600080fd5b600360189054906101000a900463ffffffff1663ffffffff168463ffffffff161115151561077557600080fd5b6007544203603c850263ffffffff161115151561079157600080fd5b836003601c6101000a81548163ffffffff021916908363ffffffff1602179055508282600491906107c3929190611133565b504260068190555050505050565b6000600260009054906101000a900473ffffffffffffffffffffffffffffffffffffffff1673ffffffffffffffffffffffffffffffffffffffff163373ffffffffffffffffffffffffffffffffffffffff1614151561082f57600080fd5b600180600381111561083d57fe5b6000809054906101000a900460ff16600381111561085757fe5b14151561086357600080fd5b60026000806101000a81548160ff0219169083600381111561088157fe5b02179055504260088190555042600681905550603c6003601c9054906101000a900463ffffffff1663ffffffff16600554028115156108bc57fe5b0491506009548211156108d157816009819055505b5050565b600260009054906101000a900473ffffffffffffffffffffffffffffffffffffffff1681565b6000600360009054906101000a900473ffffffffffffffffffffffffffffffffffffffff1673ffffffffffffffffffffffffffffffffffffffff163373ffffffffffffffffffffffffffffffffffffffff1614806109a65750600260009054906101000a900473ffffffffffffffffffffffffffffffffffffffff1673ffffffffffffffffffffffffffffffffffffffff163373ffffffffffffffffffffffffffffffffffffffff16145b15156109b157600080fd5b426006819055506109c0610a71565b90506000811115610a3e57600160028111156109d857fe5b6109e061106b565b60028111156109eb57fe5b14156109fd5780600a5401600a819055505b3373ffffffffffffffffffffffffffffffffffffffff166108fc829081150290604051600060405180830381858888f193505050501515610a3d57600080fd5b5b50565b6000603c600360189054906101000a900463ffffffff1663ffffffff1660055402811515610a6b57fe5b04905090565b6000806000806003811115610a8257fe5b6000809054906101000a900460ff166003811115610a9c57fe5b1415610aab5760009250610bf1565b610ab361106b565b915060006002811115610ac257fe5b826002811115610ace57fe5b1415610add5760009250610bf1565b600a5460095410151515610aed57fe5b600a5460095403905060016002811115610b0357fe5b826002811115610b0f57fe5b1415610b1d57809250610bf1565b600280811115610b2957fe5b826002811115610b3557fe5b1415610be65760026003811115610b4857fe5b6000809054906101000a900460ff166003811115610b6257fe5b14158015610b945750600380811115610b7757fe5b6000809054906101000a900460ff166003811115610b9157fe5b14155b15610ba25760009250610bf1565b803073ffffffffffffffffffffffffffffffffffffffff163110151515610bc557fe5b803073ffffffffffffffffffffffffffffffffffffffff1631039250610bf1565b60001515610bf057fe5b5b505090565b600181565b60055481565b6003601c9054906101000a900463ffffffff1681565b60065481565b60075481565b600080610c2e610a41565b90506103e8600360149054906101000a900463ffffffff1663ffffffff168202811515610c5757fe5b0491505090565b600360149054906101000a900463ffffffff1681565b600260009054906101000a900473ffffffffffffffffffffffffffffffffffffffff1673ffffffffffffffffffffffffffffffffffffffff163373ffffffffffffffffffffffffffffffffffffffff16141515610cd057600080fd5b6000806003811115610cde57fe5b6000809054906101000a900460ff166003811115610cf857fe5b141515610d0457600080fd5b603c600360189054906101000a900463ffffffff1663ffffffff1660055402811515610d2c57fe5b043073ffffffffffffffffffffffffffffffffffffffff163110151515610d5257600080fd5b60016000806101000a81548160ff02191690836003811115610d7057fe5b0217905550610d7d610c23565b600981905550426007819055504260068190555050565b6000809054906101000a900460ff1681565b60085481565b60048054600181600116156101000203166002900480601f016020809104026020016040519081016040528092919081815260200182805460018160011615610100020316600290048015610e425780601f10610e1757610100808354040283529160200191610e42565b820191906000526020600020905b815481529060010190602001808311610e2557829003601f168201915b505050505081565b600360189054906101000a900463ffffffff1681565b600360009054906101000a900473ffffffffffffffffffffffffffffffffffffffff1673ffffffffffffffffffffffffffffffffffffffff163373ffffffffffffffffffffffffffffffffffffffff161480610f095750600260009054906101000a900473ffffffffffffffffffffffffffffffffffffffff1673ffffffffffffffffffffffffffffffffffffffff163373ffffffffffffffffffffffffffffffffffffffff16145b1515610f1457600080fd5b60026003811115610f2157fe5b6000809054906101000a900460ff166003811115610f3b57fe5b1480610f6a5750600380811115610f4e57fe5b6000809054906101000a900460ff166003811115610f6857fe5b145b1515610f7557600080fd5b42600681905550505050565b600260009054906101000a900473ffffffffffffffffffffffffffffffffffffffff1673ffffffffffffffffffffffffffffffffffffffff163373ffffffffffffffffffffffffffffffffffffffff16141515610fdd57600080fd5b6001806003811115610feb57fe5b6000809054906101000a900460ff16600381111561100557fe5b14151561101157600080fd5b60036000806101000a81548160ff0219169083600381111561102f57fe5b0217905550426008819055504260068190555050565b600360009054906101000a900473ffffffffffffffffffffffffffffffffffffffff1681565b6000600260009054906101000a900473ffffffffffffffffffffffffffffffffffffffff1673ffffffffffffffffffffffffffffffffffffffff163373ffffffffffffffffffffffffffffffffffffffff1614156110cc5760029050611130565b600360009054906101000a900473ffffffffffffffffffffffffffffffffffffffff1673ffffffffffffffffffffffffffffffffffffffff163373ffffffffffffffffffffffffffffffffffffffff16141561112b5760019050611130565b600090505b90565b828054600181600116156101000203166002900490600052602060002090601f016020900481019282601f1061117457803560ff19168380011785556111a2565b828001600101855582156111a2579182015b828111156111a1578235825591602001919060010190611186565b5b5090506111af91906111b3565b5090565b6111d591905b808211156111d15760008160009055506001016111b9565b5090565b905600a165627a7a7230582047884932d24cb307e5c226092c7410116103b2f7bdec110db9304f8e9a46b67b0029",
  "source": "pragma solidity ^0.4.18;\n\ncontract Project {\n\n  enum State {\n    Created,\n    Active,\n    Approved,\n    Cancelled\n  }\n\n  enum Role {\n    Stranger,\n    Contractor,\n    Client\n  }\n\n  uint16 public constant version = 1;\n\n  State public state = State.Created;\n  string public name;\n\n  address public clientAddress;\n  address public contractorAddress;\n\n  uint32 public prepayFractionThousands;\n  uint32 public timeCapMinutes;\n\n  uint32 public minutesReported;\n\n  // making this public breaks Solidity compiler so it starts to output invalid ABI\n  string public contractorComment;\n\n  uint256 public hourlyRate;\n\n  uint256 public lastActivityDate = now;\n  uint256 public executionDate;\n  uint256 public endDate;\n\n  uint256 private contractorCredit = 0;\n  uint256 private contractorDebit = 0;\n\n  function Project(\n    string _name,\n    address _clientAddress,\n    uint256 _hourlyRate,\n    uint32 _timeCapMinutes,\n    uint32 _prepayFractionThousands)\n  public {\n    require(_prepayFractionThousands <= 1000);\n    require(_clientAddress != msg.sender);\n    name = _name;\n    clientAddress = _clientAddress;\n    contractorAddress = msg.sender;\n    hourlyRate = _hourlyRate;\n    timeCapMinutes = _timeCapMinutes;\n    prepayFractionThousands = _prepayFractionThousands;\n  }\n\n  modifier onlyContractor() {\n    require(msg.sender == contractorAddress);\n    _;\n  }\n\n  modifier onlyClient() {\n    require(msg.sender == clientAddress);\n    _;\n  }\n\n  modifier onlyParties() {\n    require(msg.sender == contractorAddress || msg.sender == clientAddress);\n    _;\n  }\n\n  modifier onlyAtState(State _state) {\n    require(state == _state);\n    _;\n  }\n\n  function start() onlyClient() onlyAtState(State.Created) external payable {\n    require(this.balance >= (hourlyRate * timeCapMinutes) / 60);\n    state = State.Active;\n    contractorCredit = getPrepay();\n    executionDate = now;\n    lastActivityDate = now;\n  }\n\n  function getRole() public view returns (Role) {\n    if (msg.sender == clientAddress) {\n      return Role.Client;\n    }\n    if (msg.sender == contractorAddress) {\n      return Role.Contractor;\n    }\n    return Role.Stranger;\n  }\n\n  function getPrepay() public view returns (uint256) {\n    uint256 priceCap = getPriceCap();\n    return (priceCap * prepayFractionThousands) / 1000;\n  }\n\n  function getPriceCap() public view returns (uint256) {\n    return (hourlyRate * timeCapMinutes) / 60;\n  }\n\n  function availableForWithdraw() public view returns (uint) {\n    if (state == State.Created) {\n      return 0;\n    }\n\n    Role role = getRole();\n\n    if (role == Role.Stranger) {\n      return 0;\n    }\n\n    assert(contractorCredit >= contractorDebit);\n    uint256 availableToContractor = contractorCredit - contractorDebit;\n\n    if (role == Role.Contractor) {\n      return availableToContractor;\n    }\n\n    if (role == Role.Client) {\n      if (state != State.Approved && state != State.Cancelled) {\n        return 0;\n      }\n      assert(this.balance >= availableToContractor);\n      return this.balance - availableToContractor;\n    }\n\n    assert(false);\n  }\n\n  function setBillableTime(uint32 timeMinutes, string comment)\n    onlyContractor() onlyAtState(State.Active)\n  external {\n    require(timeMinutes <= timeCapMinutes);\n    require(timeMinutes * 60 <= now - executionDate);\n    minutesReported = timeMinutes;\n    contractorComment = comment;\n    lastActivityDate = now;\n  }\n\n  function approve() onlyClient() onlyAtState(State.Active) external {\n    state = State.Approved;\n    endDate = now;\n    lastActivityDate = now;\n\n    uint256 approvedPrice = (hourlyRate * minutesReported) / 60;\n    if (approvedPrice > contractorCredit) {\n      contractorCredit = approvedPrice;\n    }\n  }\n\n  function cancel() onlyClient() onlyAtState(State.Active) external {\n    state = State.Cancelled;\n    endDate = now;\n    lastActivityDate = now;\n  }\n\n  function withdraw() onlyParties() public {\n    lastActivityDate = now;\n    uint256 toBeSent = availableForWithdraw();\n    if (toBeSent > 0) {\n      if (getRole() == Role.Contractor) {\n        contractorDebit = contractorDebit + toBeSent;\n      }\n      msg.sender.transfer(toBeSent);\n    }\n  }\n\n  function leaveFeedback(bool positive, string comment) onlyParties() external {\n    require(state == State.Approved || state == State.Cancelled);\n    // TODO\n    lastActivityDate = now;\n  }\n\n}\n",
  "sourcePath": "/Users/sam/dev/projects/append-only-log/hackathon/contracts/Project.sol",
  "compiler": {
    "name": "solc",
    "version": "0.4.18+commit.9cf6e910.Emscripten.clang"
  },
  "schemaVersion": "1.0.1",
  "updatedAt": "2017-11-23T00:02:14.944Z"
}